{
  "contractName": "KittyCore",
  "abi": [
    {
      "constant": true,
      "inputs": [
        {
          "name": "",
          "type": "uint256"
        }
      ],
      "name": "kitties",
      "outputs": [
        {
          "name": "dna",
          "type": "uint256"
        }
      ],
      "payable": false,
      "stateMutability": "view",
      "type": "function"
    },
    {
      "constant": false,
      "inputs": [
        {
          "name": "_name",
          "type": "string"
        }
      ],
      "name": "createRandomKitty",
      "outputs": [],
      "payable": false,
      "stateMutability": "nonpayable",
      "type": "function"
    },
    {
      "constant": false,
      "inputs": [
        {
          "name": "_dna",
          "type": "uint256"
        }
      ],
      "name": "_createKitty",
      "outputs": [],
      "payable": false,
      "stateMutability": "nonpayable",
      "type": "function"
    },
    {
      "constant": true,
      "inputs": [
        {
          "name": "_id",
          "type": "uint256"
        }
      ],
      "name": "getKitty",
      "outputs": [
        {
          "name": "isGestating",
          "type": "bool"
        },
        {
          "name": "isReady",
          "type": "bool"
        },
        {
          "name": "cooldownIndex",
          "type": "uint256"
        },
        {
          "name": "nextActionAt",
          "type": "uint256"
        },
        {
          "name": "siringWithId",
          "type": "uint256"
        },
        {
          "name": "birthTime",
          "type": "uint256"
        },
        {
          "name": "matronId",
          "type": "uint256"
        },
        {
          "name": "sireId",
          "type": "uint256"
        },
        {
          "name": "generation",
          "type": "uint256"
        },
        {
          "name": "genes",
          "type": "uint256"
        }
      ],
      "payable": false,
      "stateMutability": "view",
      "type": "function"
    }
  ],
  "bytecode": "0x608060405234801561001057600080fd5b506103e2806100206000396000f300608060405260043610610062576000357c0100000000000000000000000000000000000000000000000000000000900463ffffffff168063227cda17146100675780638cc51eda14610094578063b0f25d6d146100d5578063e98b7f4d1461013e575b600080fd5b34801561007357600080fd5b50610092600480360381019080803590602001909291905050506101c6565b005b3480156100a057600080fd5b506100bf6004803603810190808035906020019092919050505061020f565b6040518082815260200191505060405180910390f35b3480156100e157600080fd5b5061013c600480360381019080803590602001908201803590602001908080601f0160208091040260200160405190810160405280939291908181526020018383808284378201915050505050509192919290505050610238565b005b34801561014a57600080fd5b5061016960048036038101908080359060200190929190505050610252565b604051808b1515151581526020018a1515151581526020018981526020018881526020018781526020018681526020018581526020018481526020018381526020018281526020019a505050505050505050505060405180910390f35b6000602060405190810160405280838152509080600181540180825580915050906001820390600052602060002001600090919290919091506000820151816000015550505050565b60008181548110151561021e57fe5b906000526020600020016000915090508060000154905081565b6000610243826102c3565b905061024e816101c6565b5050565b60008060008060008060008060008060008b81548110151561027057fe5b906000526020600020016000015490506000600160008060004260008060008987975086965085955083935082925081915099509950995099509950995099509950995099509193959799509193959799565b600080826040516020018082805190602001908083835b6020831015156102ff57805182526020820191506020810190506020830392506102da565b6001836020036101000a0380198251168184511680821785525050505050509050019150506040516020818303038152906040526040518082805190602001908083835b6020831015156103685780518252602082019150602081019050602083039250610343565b6001836020036101000a0380198251168184511680821785525050505050509050019150506040518091039020600190049050662386f26fc10000818115156103ad57fe5b069150509190505600a165627a7a723058205c47d2a5d55c881cb56e9fec576d54f574433ad6fb99b3757cbdea6f036981910029",
  "source": "pragma solidity ^0.4.25;\r\n\r\ncontract KittyCore {\r\n    struct Kitty {\r\n        uint256 dna;\r\n    }\r\n\r\n    Kitty[] public kitties;\r\n\r\n    function _generateRandomDna(string memory _str) private pure returns (uint256) {\r\n        uint256 rand = uint256(keccak256(abi.encodePacked(_str)));\r\n        return rand % (10 ** 16); // Ensure DNA is a 16-digit number\r\n    }\r\n\r\n    function createRandomKitty(string memory _name) public {\r\n        uint256 randDna = _generateRandomDna(_name);\r\n        _createKitty(randDna);\r\n    }\r\n\r\n    function _createKitty(uint256 _dna) public {\r\n        kitties.push(Kitty(_dna));\r\n    }\r\n\r\n    function getKitty(uint256 _id) external view returns (\r\n        bool isGestating,\r\n        bool isReady,\r\n        uint256 cooldownIndex,\r\n        uint256 nextActionAt,\r\n        uint256 siringWithId,\r\n        uint256 birthTime,\r\n        uint256 matronId,\r\n        uint256 sireId,\r\n        uint256 generation,\r\n        uint256 genes\r\n    ) {\r\n        // Simplified response for compatibility with ZombieFeeding\r\n        genes = kitties[_id].dna;\r\n        return (false, true, 0, 0, 0, now, 0, 0, 0, genes);\r\n    }\r\n}\r\n",
  "sourcePath": "C:\\Users\\hriti\\BlockChain-Midterm\\contracts\\KittyCore.sol",
  "compiler": {
    "name": "solc",
    "version": "0.4.25+commit.59dbf8f1.Emscripten.clang"
  },
  "schemaVersion": "3.4.16",
  "updatedAt": "2024-10-23T23:41:00.580Z",
  "networkType": "ethereum",
  "devdoc": {
    "methods": {}
  },
  "userdoc": {
    "methods": {}
  }
}